:020000040040BA
:10000000F0244020D1044000CD044000CD04400045
:10001000CD044000CD044000CD04400000000000AD
:10002000000000000000000000000000CD044000BF
:10003000CD04400000000000CD044000CD0440008D
:10004000CD044000CD044000CD044000CD0440006C
:10005000CD044000CD044000CD044000CD0440005C
:10006000CD04400000000000F502400009034000FC
:100070001D034000CD044000CD044000CD044000ED
:100080003103400045034000CD044000CD04400052
:10009000CD044000CD044000CD044000CD0440001C
:1000A000CD044000CD044000CD044000CD0440000C
:1000B000CD044000CD044000CD044000CD044000FC
:1000C000CD044000CD044000CD044000CD044000EC
:1000D00000000000CD04400000000000CD044000FE
:1000E000CD044000CD044000CD044000CD044000CC
:1000F000CD044000CD044000CD044000CD044000BC
:10010000CD044000CD044000CD044000CD044000AB
:10011000CD044000000000000000000000000000CE
:10012000CD044000CD044000CD044000CD0440008B
:10013000CD04400000000000CD044000CD0440008C
:1001400010B5054C237833B9044B13B10448AFF311
:1001500000800123237010BD3C04402000000000FB
:100160002C0E40000C4B43B10C480D4910B5AFF3B9
:1001700000800C48036823B910BD0A48036833B9EE
:100180007047094B002BF7D0BDE810401847064BCD
:10019000002BF5D0184700BF000000002C0E4000D7
:1001A000400440202C0E40000000000010B5104814
:1001B000104B98473E2100200F4B98470F4CA0470B
:1001C0000028FCD00E4B98470E4A0F4B9A620F4CFA
:1001D000A0470028FCD002200D4B984700200D4B73
:1001E00098470D4B98470248024B984710BD00BFF7
:1001F00000A3E111A5064000F503400049044000BA
:1002000059044000013F182000060E4069044000D8
:100210005903400091034000990540000163704775
:100220004163704721F00061B1F1405F05D1836BFC
:10023000134214BF012000207047C36BF8E74164EC
:1002400012F0010F0DD1016612F00A0F0BD00162FE
:1002500012F0020F09D112F0080F08D0C0F8841074
:1002600005E04166F0E74162F2E7C0F880104161C5
:100270000160704710B4019C41644CB901664BB1F8
:1002800001654AB94163016101605DF8044B704743
:100290004166F4E74165F4E70163F4E7C06C704739
:1002A000806C70472DE9F041044688460E4B984714
:1002B000054620460D4B9847054013D00C4C04F1E1
:1002C000600603E0B4420DD010345DB120684045B3
:1002D000F8D161682942F5D0E3689847636825EA58
:1002E0000305EFE7BDE8F0819D024000A102400058
:1002F0005804402008B50A210148024B984708BD20
:10030000000E0E40A502400008B50B210148024B2B
:10031000984708BD00100E40A502400008B50C210A
:100320000148024B984708BD00120E40A50240004C
:1003300008B510210148024B984708BD00140E4033
:10034000A502400008B511210148024B984708BD9D
:1003500000160E40A5024000032811D0042812D038
:1003600002280CBF4FF480710021084A136B23F45C
:1003700040730B431363936E13F0080FFBD0704769
:100380004FF44071F1E74FF40071EEE700060E40C4
:10039000174A136B23F0700318431063936E13F026
:1003A000080F0AD14FF4805311498A6E12F0080FDA
:1003B00003D1013BF9D1012070470D4A136B23F0A3
:1003C000030343F002031363936E13F0080F0AD183
:1003D0004FF4805306498A6E12F0080F05D1013B95
:1003E000F9D101207047002070470020704700BFFE
:1003F00000060E40A0B90E48036A090289B20D4AF0
:100400001A400D4B1343194301620246936E13F0D9
:10041000010FFBD0064A116A084B0B431362704769
:1004200003490B6A064A1A40064B13430B62704796
:1004300000060E40FCFFC8FF010037000000370136
:10044000FCFFC8FE02003701024B986E00F48030BA
:10045000704700BF00060E404FF00052014B9A62F9
:10046000704700BF00060E40024B986E00F002007D
:10047000704700BF00060E403F281ED81F280CD82A
:10048000114B9A6901238340934318D0012303FA47
:1004900000F00D4B18610020704720380A4BD3F84C
:1004A00008210123834093430BD0012303FA00F07A
:1004B000054BC3F800010020704701207047002061
:1004C00070470020704700BF00060E40FEE70000A6
:1004D00000B583B0254B264A9A4210D0254B234ABB
:1004E0009A420CD2013B9B1A23F0030304331344BA
:1004F0001F4951F8040B42F8040B9A42F9D11E4BE4
:100500001E4A9A420AD2013B9B1A23F0030304338A
:100510001344002142F8041B9342FBD1184A194BA3
:1005200023F07F039360EFF31083B3FA83F35B0947
:10053000019372B6BFF35F8F0022134B1A700199BB
:10054000124A136843F470031360BFF34F8FBFF375
:100550006F8F29B101220C4B1A70BFF35F8F62B607
:100560000B4B98470B4B9847FEE700BF000040201D
:100570002C0E40003C044020EC0440203C04402071
:1005800000ED00E0000040000A00402088ED00E09F
:10059000950C4000510C40003B4B1B6B03F00303D8
:1005A000012B1DD083B1022B36D0374B1B6B03F0D0
:1005B0007003702B5FD0344B1A6B3449C2F30212B4
:1005C0000B68D3400B607047314B5B6913F0800FB1
:1005D00014BF4FF400424FF4FA422C4B1A60E4E788
:1005E000294B1B6A13F0807F03D02A4A274B1A60DD
:1005F000DBE7294A254B1A60234B1B6A03F0700383
:10060000102B05D0202BD0D1224A204B1A60CCE7EA
:10061000224A1E4B1A60C8E71B4B1B6A13F0807FEF
:1006200016D01C4A194B1A60174B1B6B03F00303BF
:10063000022BBAD1144A916A926A1448C1F30A4152
:10064000036801FB0333D2B2B3FBF2F30360ACE700
:10065000114A0E4B1A600C4B1B6A03F07003102BEF
:1006600005D0202BE0D10B4A084B1A60DCE70B4A7F
:10067000064B1A60D8E7054A13680949A1FB031322
:100680005B081360704700BF00060E400C0040205E
:1006900010180E40001BB70000093D0000127A0040
:1006A000ABAAAAAA124B984211D9124B984213D95D
:1006B000114B984214D9114B984215D9104B9842BE
:1006C00094BF4FF004220F4A0F4B1A6070474FF04F
:1006D00080620D4B1A6070470C4A0B4B1A607047D2
:1006E0000B4A094B1A6070470A4A074B1A60704759
:1006F000FF2C3101FF596202FF869303FFB3C4044C
:10070000FFE0F50500050004000C0E4000010004A8
:1007100000020004000300042DE9F04182B0102023
:10072000224CA047DFF89880002500952B46012237
:100730004FF0804140461E4FB8470A20A0471D4E4B
:1007400000952B46012240213046B8470C20A04797
:1007500000952B4601224FF400211748B8470A2084
:10076000A04700952B46012204213046B8470A20B5
:10077000A047012208213046104DA8470A20A04773
:1007800001224FF400113046A8471020A047012253
:100790004FF000614046A8471020A04701224FF4C7
:1007A00080114046A84702B0BDE8F08179044000BE
:1007B00075024000000E0E4000120E403F02400045
:1007C00000140E4070B54FF080418F488F4B984712
:1007D0008F4C402120468F4DA8474FF400218E4872
:1007E000A84704212046A84708224FF02051204660
:1007F0008A4B984700282FD1854D884C884E02E0BF
:100800003046884B984708224FF020512846A04791
:100810000028F5D08248834B984731244FF080411F
:1008200079487C4EB0477A4D40212846774B98470F
:100830004FF400217848B04704212846B0470822E9
:100840004FF020512846754B9847002840F086808D
:100850006F4D724C724E58E04FF400124FF0205121
:100860006B486E4B984798B9694D6C4C6C4E02E0E2
:1008700030466C4B98474FF400124FF020512846F9
:10088000A0470028F4D06648664B98473224C5E755
:100890004FF000624FF020515B48604B984798B989
:1008A000594D5E4C5E4E02E030465E4B98474FF02D
:1008B00000624FF020512846A0470028F4D0584845
:1008C000584B98473324A9E74FF480124FF020513A
:1008D0004D48524B984788B100249FE73046514B12
:1008E00098474FF480124FF020512846A047002827
:1008F000F4D04B484B4B984741248FE7424D474C2F
:10090000474EEEE73046474B984708224FF02051BC
:100910002846A0470028F5D04148424B9847342448
:100920004FF0804138483B4EB047394D4021284672
:10093000B0474FF400213848344B984704212846EB
:10094000B04708224FF020512846344B98470028E2
:1009500040F095802E4D314C314E68E04FF400123E
:100960004FF020512A482D4B984798B9284D2B4CD1
:100970002B4E02E030462B4B98474FF400124FF0BD
:1009800020512846A0470028F4D02548254B9847F9
:100990003524C5E74FF000624FF020511A481F4B35
:1009A000984798B9184D1D4C1D4E02E030461D4B1E
:1009B00098474FF000624FF020512846A04700288A
:1009C000F4D01748174B98473624A9E74FF4801204
:1009D0004FF020510C48114B98470028A0D10A4DE8
:1009E0000E4C0F4E02E030460E4B98474FF48012EB
:1009F0004FF020512846A0470028F4D00848094B62
:100A0000984742248CE700BF00140E4021024000AA
:100A1000000E0E401D02400000120E402502400054
:100A2000086F0F00010040203046714B98470822A4
:100A30004FF020512846A0470028F5D06D486C4B58
:100A4000984737244FF080416B486C4EB0476C4D4F
:100A500040212846B0474FF400216A48B04704219E
:100A60002846694B984708224FF020512846674B8B
:100A70009847002868D1624D644C5E4E57E04FF4B1
:100A800000124FF020515E48604B984798B95C4D7A
:100A90005E4C584E02E03046554B98474FF40012DA
:100AA0004FF020512846A0470028F4D05148504B21
:100AB00098473824C6E74FF000624FF020514E4867
:100AC000524B984798B94C4D504C4A4E02E0304634
:100AD000474B98474FF000624FF020512846A047FF
:100AE0000028F4D04348424B98473924AAE74FF4F2
:100AF00080124FF020514048444B98470028A1D124
:100B00003D4D424C3B4E02E03046394B98474FF446
:100B100080124FF020512846A0470028F4D03548D5
:100B2000334B984743248DE73046314B9847082292
:100B30004FF020512846A0470028F5D02D482C4BD7
:100B400098472A24204670BD4FF400124FF02051E0
:100B50002B482E4B984798B9294D2C4C254E02E036
:100B60003046234B98474FF400124FF0205128464F
:100B7000A0470028F4D01F481D4B98473024E1E7D8
:100B80004FF000624FF020511B48204B984790B91E
:100B9000194D1E4C174E4FF000624FF02051284661
:100BA000A04718B93046124B9847F4E71148104B4C
:100BB00098472324C6E74FF480124FF020510E4887
:100BC000124B98470028BDD10B4E104D094C4FF4E5
:100BD00080124FF020513046A84718B92046044BE8
:100BE0009847F4E70348024B98474424AAE700BF1C
:100BF00001004020086F0F0000140E401D0240004D
:100C0000000E0E4000120E4021024000250240005E
:100C100010B582B0094B98474FF40042084B5A6018
:100C20000C20084B98470023009301224FF4807159
:100C30000548064CA04702B010BD00BFAD01400002
:100C400050180E407904400000120E40750240001A
:100C500070B50A4B98470A4B98470A4D0A4C0B4E01
:100C600003E04FF480712046B047A8470028F8D031
:100C70004FF480712046064B9847F6E7110C400070
:100C800019074000C507400000120E401D02400039
:100C90002102400070B50F4E0F4D761BB61018BFE5
:100CA000002405D0013455F8043B9847A642F9D1F9
:100CB0000A4E0B4D761B00F0A7F8B61018BF0024A3
:100CC00006D0013455F8043B9847A642F9D170BDCF
:100CD00070BD00BF140E4000140E40001C0E4000FA
:100CE000140E4000024B13B1024800F005B87047E3
:100CF00000000000050D4000002301461A4618467A
:100D000000F01EB838B50A4C0A4D641BA4100AD076
:100D100004F18043013B05EB8305013C55F80439A0
:100D20009847002CF9D1BDE8384000F077B800BFF3
:100D30002C0E4000280E4000704700BF704700BFD7
:100D40002DE9F8432C4D0646286898460F469146F3
:100D5000FFF7F2FF294B1C68D4F84831002B3ED036
:100D60005A681F2A1CDC02F1010E76B103EB8201E6
:100D70000124C1F88890D3F8880194402043022EC2
:100D8000C3F88801C1F8088123D00232C3F804E017
:100D9000286843F82270FFF7D1FF0020BDE8F883F0
:100DA000174B0BB34FF4C870AFF300800346D8B1B4
:100DB000D4F848210260002141600A46C4F8480185
:100DC0004FF0010EC0F88811C0F88C11002EDCD055
:100DD000CCE7D3F88C110C43C3F88C41D5E704F56C
:100DE000A673C4F84831BBE72868FFF7A7FF4FF0A8
:100DF000FF30BDE8F88300BF38044020040E4000F7
:100E00000000000010004020F8B500BFF8BC08BC8E
:100E10009E467047E50C400065014000F8B500BFF4
:0C0E2000F8BC08BC9E4670474101400031
:100E2C00BFF35F8F0138FBD17047010000093D0013
:100E3C0000000000FC02402064034020CC03402052
:100E4C000000000000000000000000000000000096
:100E5C000000000000000000000000000000000086
:100E6C000000000000000000000000000000000076
:100E7C000000000000000000000000000000000066
:100E8C000000000000000000000000000000000056
:100E9C000000000000000000000000000000000046
:100EAC000000000000000000000000000000000036
:100EBC000000000000000000000000000000000026
:100ECC000000000000000000000000000000000016
:100EDC000000000000000000010000000000000005
:100EEC000E33CDAB34126DE6ECDE05000B000000CA
:100EFC0000000000000000000000000000000000E6
:100F0C0000000000000000000000000000000000D5
:100F1C0000000000000000000000000000000000C5
:100F2C0000000000000000000000000000000000B5
:0C125C000000000000000000C80440205A
:04000005004004D1E2
:00000001FF
